:020000040000FA
:060000000210320205DFD0
:03002B00020D942F
:030033000209A21D
:0300530002050E95
:03006B0002095730
:03007B00020980F7
:1000830002057001010000000000F8FF07FFFF00F8
:10009300000504000000030001FFFFFF1410270008
:1000A300000020FD000206FFFF1E82190000000071
:1000B300000000000000000000000000000000003D
:1000C300000001040000461A000000E8030000FFDE
:1000D300FF971A0188130000E8030000640064001E
:1000E300B801A0BB0D00A0BB0D0002020207040172
:1000F300051E02051E020A0A010108080103B80BC6
:1001030002803E0102FEFFE8030A050001FFFF0231
:100113000A011401E0050301010F030003000300BA
:1001230003000300030003000300030005000A00AB
:10013300140028004F009E000000992C00000000CE
:100143006D2B00000000FF000000FF001210516043
:1001530046121042603DE9687008F618F618F61862
:10016300F622748067F7120183090909748067F71F
:1001730022121042601D1210517005191919801AAC
:10018300120F21701F120EE5C37003E667331919AE
:100193001940071818182208080874FFF618F618EB
:1001A300F618F622120EE560171210DF702192F096
:1001B3001210E87019501720F014080808090909EB
:1001C300E7F61819E7F61819E7F61819E7F62212F1
:1001D30010E860E6E869701F0808E62480F608E482
:1001E30036F618547FB47F0CE654806007F6E418A3
:1001F300F618F622181822E9C6CC08C6CD08C6CED2
:1002030008C6CFC0E0E8C0E0EAC0E0EBC0E009E91F
:10021300F809E7FA09E7FBE6F918E6F8C3EC98ED05
:1002230099EE9AEBC2E7F5F0EFC2E795F0500E6056
:100233000CEBCFFBEACEFAE9CDF9E8CCF8EAA2E77A
:10024300D2E7FAEB33FB13F5F0EEA2E7D2E7FEEFCA
:1002530033FFC5F013A2E730E601B313C5F0C3C003
:10026300E0C0F07F00C39BFB605E9418600F401DED
:1002730014601AD0E023F9D0E0F80203558AF0E9BC
:10028300486003D2F0E4AFF0FAF9F8803BEB30E4D6
:100293000D89F0EA6003D2F0E4AFF0F9CAF8EB306D
:1002A300E30D88F0EF6002D2F0AFF0E4CAC9F8EBD7
:1002B30054076014FBC3EA13FAE913F9E813F8EFE0
:1002C300135002D2E0FFDBEDD0E0C0E030E739C3EA
:1002D300E49FFFF5F0EC98FC42F0ED99FD42F0EE5F
:1002E3009AFE42F0D0E0F9D0E0F8E5F0607AE92335
:1002F300F9EE20E742D8028067C3EF33FFEC33FC0B
:10030300ED33FDEE33FE80EAEC28FCED39FDEE3AE9
:10031300FED0E023F9D0E0F84002801BC3EE13FEC9
:10032300ED13FDEC13FCEF135002D2E0FF08B8000D
:10033300067F7F74FF802EEF3350178CF020F0027E
:1003430060100CBC000C0DBD00080EBE000408E8D4
:1003530060DFE933E813FFEE2313FE4F4D4C8008B3
:10036300E95480FFE4FEFDFCEE33EF33F47004FC4C
:10037300FD7E80D0E0FBD0E0FAD0E0F8D0E0CFC63D
:1003830018CEC618CDC618CCC6F92200121042608A
:100393004F1210516012E7548066F6120F2170114C
:1003A3001210DF703B090909F4F618F618F618F66F
:1003B30022120EE570151210E808080860EAE644F8
:1003C3007FF618768018E4F618F6221210E8601605
:1003D3001210DF7012E4F608F608F608E65480F609
:1003E30009090918181822EAC0E0EBC0E0ECC0E0E4
:1003F300EDC0E0E687F0A4FBACF008E687F0A42CA0
:10040300FCE435F0FA1809E687F0A42C4B6002747B
:1004130001CA35F0FCE433FB09E687F0D2F7A42CDC
:10042300CB35F0FC1908E687F0A42BCC35F0FBE4C0
:1004330033FD0819E687F0D2E7A42C4ACB35F0CD7B
:100443003400FC09E687F0D2E7A42DCC35F0FDE4B7
:1004530033FA0918E687F0D2F7A42CCD35F0CA3465
:1004630000FC08E687F0D2E7D2F7A42ACC35F07A6D
:100473007E20E70B0ACB33CBCD33CDCC33CC33CB80
:100483003350147004ED30E00ED2F1E4CD3DCDCC09
:100493003CCC3B5005DA05C2F1EB547FC63308E68A
:1004A3003392F0FBE73309E733C39A502D2B7019CE
:1004B3000C0D4C4D70151806E608C333700D20F172
:1004C3000AA2F013F6E418800B4024E4F630F0029D
:1004D300768018F618F618F68024D33B145010745F
:1004E300FFA2F013F6187680E418F618F6800FA230
:1004F300F013F618E63303F618ECF618EDF6D0E031
:10050300FDD0E0FCD0E0FBD0E0FA22C0E074F112B1
:1005130008F8A2AFE433F509D2AF85A708AFA1EF7E
:100523005508FE74105E60061213EE75A1EF740891
:100533005E60081213F475A1F78024EFA2E092F035
:10054300E508A2E082F05017906198E0F89005F476
:10055300E0C398A2D265D0335002E8F075A1FE75CE
:100563002300E509A2E092AF7F02020A13C0E07400
:10057300F21208F8A2AFE433FED2AF9061A4E0F820
:10058300759B00E59158540860087591F712144261
:100593008023E59158541060087591EF1214488038
:1005A30014E591A2E092F0E8A2E082F05007E0C2E5
:1005B300E0F012159E9061A3E0F8E5E95854046059
:1005C3000E12157475E9FB906193E0A2E640F27593
:1005D3002300EEA2E092AF7F01020A13C0E074F29F
:1005E3001208F8A2AFE433FED2AF9061A5E0F8E5BC
:1005F300BF585404600675BFFB1215B680D1C3E41F
:1006030098F8E499F91206428026C3E49AFAE49B27
:10061300FBE920E7E9120642E498F8E499F922C3DA
:10062300E498F8E499F9120642E498F8E499F9C3D6
:10063300E49AFAE49BFB22EB20E7CFE920E7E0B959
:100643000010BB0008E88AF084F8AAF022E4FBC893
:10065300FA22EB70227B10C833C8C933C933500761
:10066300C39AC3DBF280069A50012ADBEAC833F44B
:10067300C8C933F4C9FA2275F008E4C833C8C933CA
:10068300C933C99AC99B5004C92AC93BD5F0ECFBAD
:10069300C833F4C8E4C9FA221206E630F039120767
:1006A3002B80341206E620F01430E72B74FFFCFB9A
:1006B300FA747F8022E4FCFBFA7480801AB4800809
:1006C300BC00F2BB00EF800F50EBF9E4C39AFAE4ED
:1006D3009BFBE49CFCE499C6CC18C6CB18C6CA188D
:1006E300C6F922E4C9C608CAC608CBC6D333030871
:1006F300CCC63392F0C3947F402E94184019C9B9E5
:100703000704CACBCC225025C309CA33CACB33CB87
:10071300CC33CC33D9F422F4600DC9CCC313CB133F
:10072300CBCA13CAD9F6CC22E4FCFBFA2214FCFB95
:10073300FA22080808EAC0E0EBC0E086F0E7A4FA72
:10074300180986F0E7A42AFA180986F0E7A42AFA1A
:10075300180986F0E7A42AFA1986F0E7A4FBE5F066
:100763002AFA190886F0E7A42BFBE5F03AFA1908F0
:1007730086F0E7A42BFBE5F03AFA18180986F0E7B0
:10078300A4C5F02BFBE43AFA1908E7C5F0C6A42682
:10079300F6E5F03BFBE43AFA1886F0E7A4F6E5F059
:1007A3000826F6E43B08F6E43A08F6D0E0FBD0E08E
:1007B300FA22E4CFC0E0E4CEC0E0E4CDC0E0E4CC74
:1007C300C0E075F020E626F608E633F608E633F6D1
:1007D30008E633F6181818EC33FCED33FDEE33FE60
:1007E300EF33FFC3EC9709ED9709EE9709EF9719DC
:1007F3001919400FFFEC97FC09ED97FD09EE97FEE1
:10080300191906D5F0BFECF709EDF709EEF709EF73
:10081300F7191919D0E0FCD0E0FDD0E0FED0E0FFDD
:10082300222521C582C0E0E52234FFC583C0E0E56F
:1008330021C3958224F810AF088583228582218005
:1008430008858322858221D2AFCEF0A3E520F0A3D1
:100853007808E608F0A3DEFAEFF0A3E58124FAF8BE
:10086300E608F0A3E608F0A3E608F0A30808E60804
:10087300F0A3E608F0A315811581D0E0FED0E0F8DF
:10088300158115811581E8C0E0EEC0E0221210CA7F
:10089300B900030208E2E490050178327919800275
:1008A300F0A3D8FCD9FA78239000867A01BA000223
:1008B3008007E493A3F608DAF97A327B1D90008768
:1008C30078C979018015E493A3AD82AE838A828BC4
:1008D30083F0A3AA82AB838D828E83D8E9D9E7758F
:1008E30082697583DE7404120D767582C875832759
:1008F3007400120D76C0D02521C582C0E0E52234F4
:10090300FFC583C0E0E521C3958224F310AF0885BA
:1009130083228582218008858322858221D2AFC8E4
:10092300F0A3E9F0A3EAF0A3EBF0A37908E709F059
:10093300A3D8FAECF0A3EDF0A3EEF0A3EFF0A3D06D
:10094300E0F0A3D0E0F0A3D0E0F0A3E520F0A3E52E
:10095300F0F0A322C0E074F21208F8A2AFE433FE71
:10096300D2AFE589547C6003121328538983C2C52F
:10097300752300EEA2E092AF7F01020A13C0E0C02C
:10098300D0E8C0E0A8A8D2AFE58A858A8AC2EB7511
:100993002300E8A2E792AFD0E0F8D0D0D0E032C095
:1009A300E0C0D0E8C0E0A8A8D2AFE58B858B8BC2AE
:1009B300E880DCE9799EC608CAC608CBC608CCC65F
:1009C300C370207996CACBCC7019798ECBCC7013B7
:1009D3007986CC700EF9802ACA33CACB33CBCC3399
:1009E300CC331930E7F2CCCBCA3350147004EA305D
:1009F300E00DE4CA3ACACB3BCBCC3CCC500209C392
:100A0300E913C6CC182313C6CB18C6CA18C6F922D5
:100A1300852283852182E0C0E0A3E0F9A3E0FAA365
:100A2300E0FBA37808E0F608A3DFFAE0FCA3E0FD0F
:100A3300A3E0FEA3E0FFA3E0C0E0A3E0C0E0A3E0E7
:100A4300F5D0A3E0F520A3E0A3F5F010AF0885836C
:100A5300228582218008858322858221D2AFD0829C
:100A6300D083D0E0F8D0E032FF75F0108E248F25CC
:100A7300858229858328852182852283E0CEA3E090
:100A8300CF852982852883EBC9EAC8EDCBECCAC39D
:100A9300E833C8E933C9EA33CAEB33CBC3EA9EF57B
:100AA30027EB9FF526B35004AB26AA27EC33CCEDF6
:100AB30033CDD5F0DAAE24AF2522121042601C12DA
:100AC300105160171210E870071210DF7001D32263
:100AD300C0D01210DF7006D0D0B322C32233D0D0DF
:100AE300501430E0F6C3E7960809E7960809E7963D
:100AF3000809E796B32220E0D5E6970809E69708A8
:100B030009E6970809E697B322D083D082ECC0E0C8
:100B1300EDC0E0E493A3FCE493A3FDED4C600D1260
:100B23000BE4EC24FFFCED34FFFD80EFE493A3FC26
:100B3300E493A3FDED4C600D120C81EC24FFFCED5E
:100B430034FFFD80EFD0E0FDD0E0FCE493A3C0E0F0
:100B5300E493C0E022852283852182E0A3FEE0A303
:100B6300F5207808E0A3F608DFFAE0A3FFE0A3C0CE
:100B7300E0E0A3C0E0E0A3C0E0E0A3C0E0E0A3C0E6
:100B8300E010AF0885822185832280088582218534
:100B93008322D2AFD083D082020D7CD083D082E96E
:100BA300C0E0E493A3C386F0C5F095F0F908E4939D
:100BB300A386F0C5F095F0700BE493A3C3994005A9
:100BC300E9048002A3E475F002A42582F582E5F02E
:100BD3003583F583D0E0F9E493A3C0E0E493C0E068
:100BE30022C0E0C3E49396087401939618400FE47F
:100BF3009366700808740193661870007019A3A3B4
:100C0300C3E49396087401939618A3A3400DD0E010
:100C1300D0E0D0E0020B48A3A3A3A3A3A3D0E02278
:100C23007404800474028000CCC0E0EDC0E0E521D0
:100C3300C39CCCAD2250011D10AF068C218D2280A8
:100C4300068C218D22D2AF120CF8D0E0FDD0E0FC4F
:100C53002274028000CCC0E0EDC0E0E521C39CCC4F
:100C6300AD2250011D10AF068C218D2280068C21F0
:100C73008D22D2AF120CD6D0E0FDD0E0FC22C0E032
:100C8300C0F088F0E49366700808740193661870E6
:100C930000A8F0A3A3700BD0F0D0E0D0E0D0E00226
:100CA3000B48A3A3D0F0D0E022D083D082CCC0E005
:100CB300E493A36006120D571470FAE493A360063D
:100CC300120E7B1470FAD0E0FCE493A3C0E0E4932B
:100CD300C0E022CAC0E0E493A3C582CCC582C58329
:100CE300CDC583F0A3C582CCC582C583CDC583DAC8
:100CF300E5D0E0CA22CAC0E0E0A3C582CCC582C564
:100D030083CDC583F0A3C582CCC582C583CDC583FE
:100D1300DAE6D0E0CA22700908080822601618181B
:100D230018C6C333C608C633C608C633C608C63397
:100D3300C6D5E0EA22C008C3E096F50808A3E0960A
:100D4300420808A3E096420808A3E096450870010C
:100D5300D3D00822C0E0E493A3D39C5010E493A320
:100D6300C39C400AD0E0D0E0D0E0020CC9A3A3A307
:100D7300D0E022C09FF59FE473D09F22D083D0821E
:100D8300C09FE493C0E0740193C0E0740293F59FA5
:100D930022C0E0C0D0E8C0E0A8A8D2AFC2C7752384
:100DA30000E8A2E792AFD0E0F8D0D0D0E0327404EC
:100DB300800A74038006740280027401C0E0F404A4
:100DC300120DE7D0E012108D2200C0D0252110AF04
:100DD30008F521500C05228008F52150020522D286
:100DE300AFD0D0222521F58210AF08F521400C1594
:100DF300228008F52140021522D2AF85228322BB2F
:100E03000102E722C082C08389828A83BB0003E098
:100E13008002E493D083D082226016080808C6C3F8
:100E230013C618C613C618C613C618C613C6D5E00C
:100E3300EA22C3E0C696F608A3E0C696F608A3E046
:100E4300C696F608A3E0C696F6222521F8E43522D5
:100E5300F9222521FAE43522FB222521FCE435225F
:100E6300FD22252110AF08F521400C15228008F53D
:100E73002140021522D2AF22C0E0E493A36C700993
:100E8300D0E0D0E0D0E0020CC9A3A3D0E022E0661A
:100E9300701008A3E066700A08A3E066700408A354
:100EA300E06622C3E09608A3E09608A3E09608A3B1
:100EB300E096A2D265D03322C3E7960809E79608E5
:100EC30009E7960809E796A2D265D03322E7667050
:100ED300100809E766700A0809E76670040809E75D
:100EE3006622191919E70947097009E727097005E7
:100EF300E733F4220922C3E096F008A3E096F00852
:100F0300A3E096F008A3E096F022C3E697F608095B
:100F1300E697F60809E697F60809E697F622181801
:100F230018E60846087009E626087005E633F42239
:100F33000822C3E493960874019396087402939667
:100F4300087403939622E026F608A3E036F608A376
:100F5300E036F608A3E036F622E627F60809E63778
:100F6300F60809E637F60809E637F6227004226028
:100F73000D18C6C333C608C633C6D5E0F41822E03D
:100F830056F008A3E056F008A3E056F008A3E05695
:100F9300F022E657F60809E657F60809E657F60879
:100FA30009E657F622E026F008A3E036F008A3E0AE
:100FB30036F008A3E036F022E056F608A3E056F632
:100FC30008A3E056F608A3E056F622E647F608091A
:100FD300E647F60809E647F60809E647F622E4C3BA
:100FE30096F608E496F608E496F608E496F6226088
:100FF3000D08C6A2E713C618C613C6D5E0F322C66A
:10100300F4C608C6F4C608C6F4C608C6F4C622C3A6
:10101300E09608A3E09608A3E09608A3E09622C30F
:10102300E7960809E7960809E7960809E7962275FF
:10103300D00075813F75210175220500020890E6F5
:10104300084608C3134608336002E633F422E7096F
:101053004709C3134709336002E733F422600C08DE
:10106300C6C313C618C613C6D5E0F422E6F008A318
:10107300E6F008A3E6F008A3E6F022E0F608A3E012
:10108300F608A3E0F608A3E0F622CAC0E0E6F0A360
:1010930008DAFAD0E0FA22E0FAA3E0FBA3E0FCA32B
:1010A300E0FD22EAF0A3EBF0A3ECF0A3EDF022E0E5
:1010B300F8A3E0F9A3E0FAA3E0FB22E8F0A3E9F048
:1010C300A3EAF0A3EBF022E5C754F84401F5C7798E
:1010D30001222521F582E43522F58322E7271947EA
:1010E3001947194722E62618461846184622C2AF62
:1010F30075D69F02000022120D7FE0D302120D7FEE
:1011030027D702120D7F86D902120D7F1DDA021234
:101113000D7F4ADA02120D7F97DA02120D7F1FDB71
:1011230002120D7FDADB02120D7F3DDC02120D7F0E
:1011330081DC02120D7F1BDD02120D7F99DD02128D
:101143000D7FCCDD02120D7FDADE02120D7FFADE97
:1011530002120D7F4EDF02120D7F36E002120D7F69
:1011630038E202120D7FDAE202120D7F2AE5021243
:101173000D7FAEE502120D7FB0E802120D7FE4EAA7
:1011830002120D7F1CEB02120D7F7BEC02120D7F0E
:1011930085EC02120D7FD4EC02120D7FA6EE021233
:1011A3000D7FE4D704120D7F18D804120D7F58D891
:1011B30004120D7F5BD904120D7F7CD904120D7FBD
:1011C30007DA04120D7F82F101120D7FFEF1011285
:1011D3000D7F31F201120D7F5FF201120D7F9DF23F
:1011E30001120D7FD8F401120D7FF7F401120D7F68
:1011F3003CF501120D7FD2F501120D7F1EF601128F
:101203000D7FB2F601120D7F8AF701120D7FE6F70B
:1012130001120D7F44F801120D7FC1F801120D7FF9
:10122300F7F801120D7F42F901120D7F68F90112DF
:101233000D7FF8F901120D7F8FFA01120D7FDBFA92
:1012430001120D7F0CFB01120D7F43FB01120D7F79
:10125300C9FC01120D7F93FD01120D7F63FE011284
:101263000D7F7FC004120D7FA1C004120D7FC1C08A
:1012730004120D7FE8C004120D7F2FC204120D7FEC
:101283009DC204120D7F63C304120D7FFAC30412BF
:101293000D7FEEFF01120D7FF3FF01120D7FF6FFAD
:1012A30001120D7F36D304120D7FFDD304120D7F7F
:1012B3000FD404120D7F82D404120D7F58EC041254
:1012C3000D7F69EC04120D7F07ED04120D7F12ED03
:1012D30004120D7F2AED04120D7FF17F00120D7FA2
:1012E300EBFF03120D7F39ED04120D7F49ED04125C
:1012F3000D7F5EED04120D7F12EE04120D7F82E866
:1013030004120D7F05E904120D7F6BE904120D7FB2
:1013130049E304120D7F71E304120D7F94E3041279
:101323000D7F09E404120D7F53E404120D7F7EE464
:1013330004120D7F95E404120D7FB67B00120D7F1E
:10134300C47B00120D7F3D7C00120D7F157D0012C2
:101353000D7FD87E00120D7F287F00120D7F647FE2
:1013630000120D7FF87F00120D7F5FDC04120D7FEA
:1013730097DC04120D7FE2DD04120D7F66DE04129A
:101383000D7F36B704120D7F62B704120D7FA6B925
:1013930004120D7FE6B904120D7F26BA04120D7FE5
:1013A3003ABA04120D7F53BA04120D7F45BB0412DF
:1013B3000D7FEABB04120D7FFEBB04120D7FE1E13A
:1013C30004120D7F05E204120D7F1EE204120D7F4D
:1013D30050E204120D7F80E204120D7FADE204128D
:1013E3000D7FB7E204120D7F19E304120D7F28E38A
:1013F30004120D7F32E304120D7F3FE304120D7FCD
:1014030091D004120D7FB1D004120D7FF0D00412DD
:101413000D7F0BD104120D7F2AD104120D7F90D1C1
:1014230004120D7F99D104120D7FF6D104120D7FA2
:1014330005D204120D7F29D204120D7FEAD20412C1
:101443000D7FF7D204120D7F08D304120D7F777F2F
:1014530000120D7FBF7F00120D7FEB7F00120D7F07
:1014630085B204120D7FDFB304120D7FEDB30412B6
:101473000D7F00B404120D7F15B404120D7F2AB43E
:1014830004120D7F3DB404120D7FB1B404120D7F1D
:1014930016B504120D7F9EB504120D7F1AB6041201
:1014A3000D7FDEB604120D7FEEB604120D7FFDB67E
:1014B30004120D7FC0EE04120D7FE4EE04120D7FC3
:1014C3000CEF04120D7F34EF04120D7F93D5041239
:1014D3000D7FBAD504120D7FD8D504120D7F4BD6DC
:1014E30004120D7FBECD04120D7FD7CD04120D7FE4
:1014F300E3CD04120D7FF7CD04120D7F15CE041238
:101503000D7F1FCE04120D7F29CE04120D7F3CCE1A
:1015130004120D7FC2CE04120D7F37CF04120D7F4C
:1015230066CF04120D7FB4CF04120D7F03D00412D3
:101533000D7F1ED004120D7F28D004120D7F39D0E9
:1015430004120D7F7CD004120D7FD6EF04120D7FA1
:1015530021F004120D7F7D9404120D7FA7940412D1
:101563000D7FC49404120D7FD79404120D7FED9464
:1015730004120D7F4B9504120D7F839504120D7F8A
:10158300779904120D7FBC9A04120D7FEF9A04120F
:101593000D7F529B04120D7FB29C04120D7FDA9CC7
:1015A30004120D7FEF9C04120D7FFF9C04120D7F2C
:1015B300439D04120D7F9E9D04120D7FAE9D041268
:1015C3000D7F52E704120D7F6CE704120D7F94E741
:1015D30004120D7FADE704120D7FD1E704120D7FD6
:1015E300EFE704120D7F06E804120D7F34E80412BE
:1015F3000D7F4FE804120D7F3CFF01120D7F80FF2A
:1016030001120D7F32C404120D7F42C404120D7FF8
:1016130047C504120D7F79C504120D7FA9C50412B5
:101623000D7FCCC504120D7FE3C504120D7F1DC6CB
:1016330004120D7F82C604120D7FC4C604120D7FEF
:1016430003C704120D7F34C704120D7F5FC7041252
:101653000D7FABE404120D7FBDE404120D7FD1E5D1
:1016630004120D7FD4E504120D7F84EA04120D7F6A
:10167300BAEA04120D7FD0EA04120D7F12EB0412B2
:101683000D7F22EB04120D7F66EB04120D7F9EA5E6
:1016930004120D7FE1A504120D7F46A604120D7FEF
:1016A30063A604120D7F05A704120D7F0EA7041273
:1016B3000D7F53A704120D7F7CA704120D7F89A70A
:1016C30004120D7F04A804120D7F8FA804120D7F4E
:1016D300D4A804120D7F1FA904120D7F84A904123C
:1016E3000D7FA7A904120D7F18AA04120D7F6DAAFE
:1016F30004120D7FA8AA04120D7FDDAA04120D7F28
:10170300EFAA04120D7F01AB04120D7F20AB04126C
:101713000D7F29AB04120D7FDCAB04120D7F1FACD0
:1017230004120D7F5DAC04120D7F01E604120D7FE0
:1017330041E704120D7F2DF004120D7F29DA041204
:101743000D7F5FDA04120D7FA7DA04120D7F00DC30
:1017530004120D7FD1DB03120D7FEADC03120D7F30
:1017630024DD03120D7FD2DE03120D7F00DF03128F
:101773000D7F66E103120D7FA6E103120D7F4AE39D
:1017830003120D7FDAE303120D7F2EE403120D7FA4
:10179300D0E403120D7F12E503120D7F54E503120B
:1017A3000D7FB1E603120D7FFFE703120D7F36EACB
:1017B30003120D7F64EA03120D7F8BEA03120D7F80
:1017C30094EA03120D7FEBEA03120D7F86EB0312FB
:1017D3000D7F8EEE03120D7F15EF03120D7F18EEB2
:1017E30004120D7F30EE04120D7F3AEE04120D7FCA
:1017F3008EEE04120D7F50FB02120D7F66FB021268
:101803000D7F07FC02120D7F46FC02120D7F63FC65
:1018130002120D7F94FC02120D7FE1FC02120D7F78
:1018230014FD02120D7F4FFD02120D7F4AFF0212BB
:101833000D7FB2FF02120D7F84E904120D7FE3E9ED
:1018430004120D7F21EA04120D7F62EA04120D7F58
:10185300C4FF02120D7F8AF004120D7F0080021272
:101863000D7F0C8002120D7F6E8002120D7F788037
:1018730002120D7F098102120D7F458102120D7F35
:10188300358202120D7F828202120D7F11830212B2
:101893000D7F478302120D7FC28302120D7F918554
:1018A30002120D7F8B8702120D7F698802120D7F52
:1018B300878902120D7FCD8B02120D7F108D0212CC
:1018C3000D7FBF8D02120D7F5F9202120D7F539326
:1018D30002120D7FF79302120D7F1C9402120D7FEB
:1018E300B89402120D7FCD9402120D7FF19402126F
:1018F3000D7F5F9502120D7F7C9502120D7FA695D9
:1019030002120D7F3C9702120D7F5D9702120D7F2D
:10191300039802120D7F4B9802120D7FA0980212BA
:101923000D7F409902120D7FA49902120D7F029A36
:1019330002120D7FAB9A02120D7F199B02120D7FCB
:101943004C9B02120D7FBA9B02120D7FF59C021273
:101953000D7F6B9E02120D7F089F02120D7F46A121
:1019630002120D7FAFA102120D7FD9A102120D7FCA
:10197300F5A302120D7F9CA602120D7FC5A70212CA
:101983000D7FDE9D04120D7FF69D04120D7F139EC5
:1019930004120D7F689F04120D7F21A204120D7F94
:1019A30043A204120D7F35A304120D7FBFA30412BB
:1019B3000D7F11A504120D7F53E004120D7F0FE17B
:1019C30004120D7FB1E104120D7F89AC04120D7F67
:1019D30016AD04120D7F8FAD04120D7F2EAE0412CF
:1019E3000D7F4FAE04120D7F2BAF04120D7F98B005
:1019F30004120D7F91EB04120D7F0DC703120D7FAF
:101A03003CC703120D7FB4C703120D7FB7C803127F
:101A13000D7F13C903120D7F8ACA03120D7FA6CA55
:101A230003120D7FF8CA03120D7F3BCB03120D7F08
:101A33004ECB03120D7FA0CB03120D7F5BCC0312A1
:101A43000D7FD5CC03120D7FFFCC03120D7F37CD55
:101A530003120D7FB3CE03120D7F8CCF03120D7FC4
:101A6300D5D003120D7FA8D103120D7F30D20312FC
:101A73000D7F78D203120D7F92D203120D7FD9D23C
:101A830003120D7FF9D203120D7F8FD303120D7F43
:101A930015D403120D7F6FD403120D7FB3D4031239
:101AA3000D7F44D703120D7F67D803120D7FA3D890
:101AB30003120D7F95D903120D7FBDD903120D7F3C
:101AC300C0D903120D7FCAD903120D7FDDD90312CA
:101AD3000D7F5CDA03120D7F92DA03120D7FBEDAFB
:101AE30003120D7FE5DA03120D7F09DB03120D7F6D
:101AF3007ADB03120D7F88DB03120D7FBBDB03123E
:101B03000D7F59EF04120D7F65EF04120D7F99EFDE
:101B130004120D7FEE7F00120D7FF3B003120D7FD1
:101B230016B103120D7F5CB203120D7FA5B203122F
:101B33000D7F0DB303120D7F6BB303120D7F6EB3D5
:101B430003120D7FBAB303120D7F2DB403120D7F61
:101B5300B5B403120D7FB8B403120D7F42B503125F
:101B63000D7F83B503120D7F66B903120D7FFFBA94
:101B730003120D7F5DBB03120D7FD8BE03120D7FD1
:101B8300429004120D7F80C103120D7F1EC2031207
:101B93000D7F29C303120D7F7AC503120D7F64EFF6
:101BA30003120D7F0EF003120D7F74F003120D7FED
:101BB3008DF003120D7F09F103120D7F5FF1031204
:101BC3000D7FAFF103120D7F16F203120D7F8FF31A
:101BD30003120D7FBDF403120D7F42F503120D7F37
:101BE30048F703120D7FF1F703120D7F9AF80312E2
:101BF3000D7F5CF903120D7F05FB03120D7F21D3CB
:101C030002120D7F5EFD03120D7F76FE03120D7F20
:101C1300008003120D7F748003120D7FBC800312BA
:101C23000D7F008103120D7F498103120D7F938184
:101C330003120D7FCB8103120D7F498203120D7FA7
:101C4300A38203120D7FF78303120D7F888403128F
:101C53000D7FE08403120D7FFA8403120D7F22852A
:101C630003120D7F7A8503120D7FE98703120D7F1F
:101C7300088803120D7FEC8803120D7F1C8A031260
:101C83000D7F998A03120D7FE88A03120D7F498B1A
:101C930003120D7FEF8B03120D7FBD8D03120D7F9A
:101CA300BD8E03120D7F3B9003120D7F1C92031216
:101CB3000D7F829403120D7F329603120D7F0297DC
:101CC30003120D7F709703120D7F879703120D7F09
:101CD3007F9803120D7F6F9903120D7FDA99031218
:101CE3000D7FDDCA04120D7F29CC04120D7FE6CCD3
:101CF30004120D7F4ACD04120D7FB7C704120D7F66
:101D0300D2C704120D7F16C804120D7F3CC80412FB
:101D13000D7F62C804120D7F7AC804120D7FDDC8DF
:101D230004120D7FF2C804120D7F15CA04120D7F31
:101D33001ECA04120D7F27CA04120D7F30CA041273
:101D43000D7F3ACA04120D7F12BC04120D7F11C01D
:101D530004120D7F16C004120D7F18C004120D7FEC
:101D6300E0DE04120D7FBFFF03120D7FF2AB021200
:101D73000D7F25AC02120D7F91AC02120D7F2CADAD
:101D830002120D7FC9AD02120D7F0EAE02120D7F3E
:101D930030AE02120D7F49AE02120D7F6FAE0212FA
:101DA3000D7F91AE02120D7FCFAE02120D7F13AFE6
:101DB30002120D7F35AF02120D7F97AF02120D7F16
:101DC3005EB002120D7F15B102120D7F87B10212B0
:101DD3000D7F52B202120D7FA5B202120D7F0BB31B
:101DE30002120D7F45B302120D7F97B302120D7FCE
:101DF30005B402120D7F70B402120D7F73B4021288
:101E03000D7FF4B402120D7F8BB502120D7F0BB65A
:101E130002120D7F2AB602120D7F8EB702120D7FBA
:101E23009BB702120D7FA7B802120D7FB4B802123E
:101E33000D7FBDB802120D7F95BA02120D7FAFBBA5
:101E430002120D7F28BC02120D7F9ABC02120D7F75
:101E5300BCBC02120D7F50BD02120D7F24BF0212C3
:101E63000D7FFBC202120D7F0FC302120D7F1FC332
:101E730002120D7F29C302120D7F32C302120D7F9E
:101E83003BC302120D7F45C302120D7F72C30212C0
:101E93000D7F9BC302120D7FA6C302120D7FCAC31F
:101EA30002120D7FEEC302120D7F58C402120D7F82
:101EB3009EC402120D7FBBC402120D7F38C50212ED
:101EC3000D7F6FC502120D7FAEC502120D7FFBC5DC
:101ED30002120D7F81C602120D7F4FC802120D7FC1
:101EE300D2C802120D7FB6C902120D7F1DCC021299
:101EF3000D7F76CC02120D7FC0CC02120D7F1BCE5C
:101F030002120D7F50CE02120D7FA2CE02120D7F60
:101F130057CF02120D7F06D002120D7F43D002125B
:101F23000D7FD8D002120D7F44D102120D7FF92EFE
:101F330000120D7F2B2F00120D7F592F00120D7FE2
:101F43002F3100120D7F0F3200120D7F6732001206
:101F53000D7FA23300120D7FEE3300120D7F173772
:101F630000120D7F0A3A00120D7F5A3B00120D7FBB
:101F7300F03B00120D7FFC3B00120D7F2E3C001244
:101F83000D7FB13D00120D7F623F00120D7FF63FC2
:101F930000120D7F394000120D7FB74000120D7FF4
:101FA300D44000120D7F044100120D7F394100120D
:101FB3000D7F094200120D7FB24200120D7F38459A
:101FC30000120D7F584600120D7F434700120D7F0C
:101FD300C54700120D7FF94B00120D7F364C0012DE
:101FE3000D7F8E4C00120D7FC14C00120D7F2B4DC7
:101FF30000120D7F614D00120D7FEC4D00120D7F1D
:10200300444E00120D7F1B4F00120D7FD44F001260
:102013000D7F6F5000120D7F775300120D7F935485
:1020230000120D7F365800120D7F2A5900120D7FC2
:102033002D5900120D7F5C5900120D7F625B001257
:102043000D7F3B5C00120D7F7E5C00120D7FD45D23
:1020530000120D7F135E00120D7F9C5E00120D7F38
:10206300D05E00120D7F955F00120D7FAD610012EF
:102073000D7F1E6200120D7F5E6200120D7FEC6207
:1020830000120D7F0E6400120D7FD06400120D7FCD
:10209300D76600120D7FEF6600120D7F03670012F3
:1020A3000D7F3B6700120D7F696700120D7FE868A3
:1020B30000120D7F0D6A00120D7F6A6A00120D7FF8
:1020C3001C6B00120D7F436B00120D7F0A6C001214
:1020D3000D7FA26C00120D7FC86E00120D7FFD6E86
:1020E30000120D7F606F00120D7F8F7000120D7F45
:1020F300377100120D7F687100120D7F807100121D
:102103000D7F0F7200120D7FC37400120D7F9B763B
:1021130000120D7FB77600120D7FD37600120D7F6C
:10212300A17700120D7F947B00120D7FA08701120F
:102133000D7FD28701120D7FC18B01120D7F0D8C94
:1021430001120D7F538C01120D7FF58C01120D7F4F
:10215300518D01120D7F968D01120D7FDD8E0112BF
:102163000D7FF18F01120D7FE09301120D7F6494B7
:1021730001120D7F719501120D7FCD9501120D7F17
:10218300BD9701120D7F329801120D7F3C98011209
:102193000D7F499801120D7F749801120D7F5B9991
:1021A30001120D7F059A01120D7F839A01120D7F93
:1021B300A39A01120D7FCC9A01120D7FEE9A0112A0
:1021C3000D7F4E9D01120D7F149E01120D7F599EAE
:1021D30001120D7FD69E01120D7F879F01120D7F85
:1021E300B99F01120D7FFF9F01120D7F3BA00112CA
:1021F3000D7F8BA001120D7FDFA001120D7F35A192
:1022030001120D7F81A101120D7FEEA101120D7F3D
:1022130069A201120D7F34A401120D7F34A50112AE
:102223000D7F59A601120D7F98A901120D7FABAC4A
:1022330001120D7F68AD01120D7FACAD01120D7F50
:102243005CAF01120D7F70AF01120D7F7AAF0112E7
:102253000D7F84AF01120D7F90AF01120D7FACAFE4
:1022630001120D7F57B001120D7F96B001120D7F41
:10227300A0B001120D7FAAB001120D7F1AB1011295
:102283000D7F65B101120D7F7AB201120D7FD6B2B7
:1022930001120D7F57B301120D7F16B401120D7F8A
:1022A3001FB501120D7F53B601120D7F41B7011205
:1022B3000D7F59B701120D7FB4B701120D7FD2B74D
:1022C30001120D7F1AB801120D7F41B801120D7F63
:1022D300DCB801120D7FA2B901120D7F34BA0112CD
:1022E3000D7FAEBA01120D7FC8BB01120D7F75BC05
:1022F30001120D7F9DBD01120D7FEDBD01120D7FFA
:1023030051BE01120D7FB3BE01120D7FE1BE01125A
:102313000D7F05BF01120D7F3ABF01120D7F6BBF09
:1023230001120D7F9EBF01120D7FBEBF01120D7FF3
:1023330026C001120D7F1AC101120D7F75C1011252
:102343000D7F9EC101120D7F26C201120D7FA9C20E
:1023530001120D7FD4C201120D7FB9C301120D7F8B
:102363003BF002120D7F73F002120D7F94F0021204
:102373000D7FD6F002120D7F38F102120D7F42F16C
:1023830002120D7F52F102120D7F8DF102120D7FA9
:102393006DF502120D7F5AF702120D7F40F90212FA
:1023A3000D7FD7F902120D7F79FA02120D7FBBC59B
:1023B30001120D7F39C601120D7F95C601120D7FE3
:1023C300E0C601120D7FFBC601120D7F26C7011265
:1023D3000D7F43C701120D7F4FC701120D7FE6C862
:1023E30001120D7FFFC801120D7F84C901120D7FF9
:1023F30097C901120D7FB6C901120D7F5ACA011286
:102403000D7FDBCB01120D7F8ECD01120D7F24CE0C
:1024130001120D7F27CE01120D7F97CE01120D7F82
:10242300B5CE01120D7F4CCF01120D7F94CF011257
:102433000D7F97CF01120D7F5DD001120D7FCAD0A2
:1024430001120D7FF0D001120D7F7BD101120D7FA0
:1024530099D101120D7FDFD101120D7F93D20112A9
:102463000D7FDDD201120D7F0CD301120D7F69D3D5
:1024730001120D7F9ED301120D7FCAD301120D7F6E
:10248300D8D301120D7F25D401120D7F95D40112EB
:102493000D7FDED401120D7F2AD501120D7F56D593
:1024A30001120D7F61D501120D7F7FD501120D7FC2
:1024B3006AD601120D7F74D601120D7FAFD60112B9
:1024C3000D7FBFD601120D7FC8D601120D7F1CD719
:1024D30001120D7F30D701120D7F5FD801120D7FDE
:1024E30076D801120D7F8BD801120D7F19D90112F5
:1024F3000D7F5ED901120D7FEAD901120D7FF5D947
:1025030001120D7F37DB01120D7F52DB01120D7FAC
:102513009EDB01120D7F0DDC01120D7F46DC0112E3
:102523000D7F60DC01120D7FA2DC01120D7F72DFD3
:1025330001120D7F1FE001120D7F8CE001120D7F50
:10254300CCE201120D7FE4E201120D7FE7E20112FA
:102553000D7FF3E201120D7F07E301120D7F0FE3FD
:1025630001120D7F42E301120D7F44E401120D7F3E
:10257300CBE401120D7F3BE501120D7FBDE5011296
:102583000D7F7EE601120D7F9DE601120D7F3EE772
:1025930001120D7F9BE701120D7F9EE701120D7F54
:1025A300CBE701120D7FE0E701120D7F54E8011222
:1025B3000D7FA3E901120D7FA9EA01120D7F34EB10
:1025C30001120D7F4FEC01120D7F17ED01120D7FEC
:1025D30048ED01120D7F6BED01120D7F74ED0112B9
:1025E3000D7FA3ED01120D7F33EE01120D7FE9EE96
:1025F30001120D7F5EEF01120D7F05F001120D7FB9
:102603007AF001120D7FB1F001120D7FEFF001128C
:102613000D7F25F101120D7FA18F04120D7FA58E71
:1026230004120D7FCF8D04120D7FD88B04120D7F02
:102633002B8B04120D7FBD8A04120D7FC3B00312CE
:102643000D7FB9B003120D7F4EB003120D7FA2AE02
:1026530003120D7F60AE03120D7F7ED202120D7F37
:102663003DD202120D7F80AD03120D7F6AAD0312BE
:102673000D7F1ED202120D7FEBD102120D7F2BAD07
:1026830003120D7F86AC03120D7F80A903120D7F09
:102693006EA703120D7F3BA703120D7FD6A603126D
:1026A3000D7F69A603120D7F28A603120D7F61A576
:1026B30003120D7FFCA403120D7FA7A403120D7F49
:1026C3004AA403120D7F21A303120D7FBEA203129E
:1026D3000D7F08A203120D7F03A203120D7FF7A142
:1026E30003120D7FAA9E03120D7F849E03120D7F9A
:1026F300D6D102120D7FABD102120D7F3794041293
:102703000D7FFF9304120D7FA89304120D7F119286
:1027130004120D7F539104120D7F299E03120D7F26
:10272300D49D03120D7F959D03120D7F829D03128D
:102733000D7FB69004120D7F779D03120D7F539D7D
:1027430003120D7F629B03120D7FE19A03120D7F2B
:10275300AC9004120D7F9D9A03120D7FADFC031202
:102763000D7F719A03120D7F5F8A04120D7F218AF8
:1027730004120D7FF48904120D7FC08904120D7FAA
:102783005F8904120D7F478904120D7F2389041288
:102793000D7FEC8504120D7FB88304120D7F9F819A
:1027A30004120D7F2E8104120D7FDD8004120D7F34
:1027B300978004120D7F569004120D7F008004123F
:1027C3000D7F11C00300000080FBE4738F00010044
:1027D300BF1D87000100BD1D35000400861D2500B7
:1027E30002008A1D260002008C1D270002008E1D98
:1027F30028000100981D29000100991D8400040090
:10280300221B86000100401D2A0001009A1D2B0097
:1028130001009B1D2C0001009F1D2D0008002E1B95
:102823002E000100A01D2F000100A11D300001009A
:10283300A21D31000100A31D32000100361B33002D
:102843000100371B34000100A41D36000100381BB2
:1028530038000100A51D390001009E1D8300020000
:10286300BB1D63000100441B640001009C1D650047
:1028730001009D1D6D000100451B71000800261B12
:1028830066000100BA1D43000100AB1D44000200B5
:10289300AC1D45000100AE1D46000200AF1D470000
:1028A30008003C1B48000100B11D4B000100B21D94
:1028B30004000100BE1DA1000100C21D370001007C
:1028C300C11D88000100C01D3C000100391B3D00F3
:1028D3000100A61D49000200B31D67000100461B4D
:1028E3004D000200B51D4E000100B71D4F00020050
:1028F300B81D3E000100AA1D510001003A1B520001
:102903000100A81D53000100A91D540001003B1B39
:102913000000000000000700000030231719070023
:102923001000302303190700000030231819070093
:102933001000302304190700000030231919070081
:102943001000302305190700000030231A1907006F
:102953001000302306190700000030231B1907005D
:102963001000302307190700000030231C1907004B
:102973001000302308190700000030231D19070039
:102983001000302309190700000030231E19070027
:10299300100030230A190700000030231F19070015
:1029A300100030230B190700000030232019070003
:1029B300100030230C1907000000302321190700F1
:1029C300100030230D1907000000302322190700DF
:1029D300100030230E1907000000302323190700CD
:1029E300100030230F1907000000302324190700BB
:1029F30010003023101907000000302325190700A9
:102A03001000302311190700000030232619070096
:102A13001000302312190700000030232719070084
:102A23001000302313190700000030232819070072
:102A33001000302314190700000030232919070060
:102A4300100030231519000136360101000102017F
:102A5300000103010001040106060502000007014D
:102A630000340801000F090401010D0100FF0E08E5
:102A7300000017020000190100FF1A0100011B01E9
:102A830000FE1C0100081D0200001F0100012001BF
:102A93000001210200002301000F2402000026018F
:102AA300000127010008280200FF2A0100072B016B
:102AB30002402C0100002D0100012E0100012F0115
:102AC30000FF30010B1D310800003A0100083B01F3
:102AD300000F3C0100013D0100FF3E0400004204E1
:102AE3000000460400004A0400004E0400005204A3
:102AF3000000560400005A040000000000002001FA
:102B03009E870000010020019F8700000200200132
:102B13009A870000030020019B8700000400420104
:102B2300988600000500420161860000060042010C
:102B330050860000070030019C8700000040200100
:102B43009F870000FDFF21019687010020002005DB
:102B5300481D010021002005491D07000000302306
:102B63001619070010003023021901037103010332
:102B73000103010301030103220302030103100301
:102B830000030003000300030003000300034203E8
:102B930000032403060300030003040312032503B5
:102BA3002303250323030403040300030003000397
:102BB30044030003000323030003650321003503DB
:102BC300810300030503000300030003000325033F
:102BD300230301017101010101011101010131010E
:102BE300010101018001100161013B001400630137
:102BF30073017201620143010001130106013D01EA
:102C0300350004011201000100010001000104016B
:102C13000401330133013C01440132013600000158
:102C230000016501000135008101000105018201F8
:102C3300830100010302710230016002110270027C
:102C43000102020202028002100261023A00410004
:102C5300630273027202620243020002130238002B
:102C6300000200020402120200020002000200023B
:102C730004020402370037003C0244020002390018
:102C83000002000265020002350281020002050211
:102C93008202830200020300710030016000110010
:102CA3007000310220035004800010006100000016
:102CB30014006300730072006200430000001300FD
:102CC30006000000000004001200000000000000E5
:102CD300000004000400370037003C0244000000F9
:102CE30000000000000065000000350081000000C6
:102CF300050000008300000036000100060000000C
:102D03000F0000000000000000000000000003FFAF
:102D1300FF00000403FFFF0000FFFF0FF4010005A5
:102D2300C4040320000100000B00000000000000A9
:102D33000003010F0000000000000000000000007D
:102D43000000000000000000000000000000000080
:102D530000000000000040196A1946197A184C193E
:102D630070194C197C1952197A184C197019581981
:102D73007A18000000005E197A18000000000000B5
:102D8300000064197A180000000000000000000031
:102D93000000000000000000000000000000000030
:102DA3000000000000000000000000000000000020
:102DB30000000000C81B0100C81B02003E1B02806C
:102DC300381B0300441B04004A1B0480501B0500EE
:102DD300561B0600621B3100741B33007A1B340040
:102DE300C227FFFF000003000300040008001000D7
:102DF3001F003E007B00F600EC01D703AF075D0F19
:102E0300B91E713D000007ECFDFDFDECDCDCCCBC24
:102E1300ACAC9C9C8C7C7C6C6C5C5C5C4C4C3C3C9F
:102E23002C2C1C1C03EAF5E5D5D5C5B5A5959585D0
:102E3300857575656555554545353525251515053F
:102E43000AA421026E21057A210774210C56210D53
:102E53006221FF000000160F00000B150B02000299
:102E6300220F3300000E0F5A6967426565416C6C8F
:102E730069616E63653039D0D1D2D3D4D5D6D7D872
:102E8300D9DADBDCDDDEDF303016181920231A1C1B
:102E93001E3000034D4C4651181A25050200011936
:102EA3001618161618230300303017181921301B73
:102EB3001D1F30003C40423A3F3F392F47300C0E34
:102EC300020B040B0A0708000F02040201010101AF
:102ED3000902E803000000BE040A0E00010003001B
:102EE300E80304090E031E1E03010C04280828022C
:102EF3000C0508150A04C082C0831211C6901B6F0B
:102F03007446F0A3741FF0901B71744CF0A3741FEC
:102F1300F0901B737452F0A3741FF0901B757458D8
:102F2300F0A3741FF0025C3474F7120824901B633F
:102F3300E4F0E9901B62F07C3C7D1B7A647B1B12FE
:102F4300184A901DB1E0901B6CF0901B6D7426F035
:102F5300A3741B023EC174F0120824EAFEEBFF5473
:102F63008070030230CA901B62123F567003023016
:102F7300C3EA241B1257C1707CEA241F1257C16491
:102F8300137002A3E0706E8A828B83123118901B38
:102F93007D124D53750A00750B00800D123D97127B
:102FA3006E3312174EAA0EAB0FEA4B60488A828B20
:102FB30083E0650C7004A3E0650D702C8A828B831B
:102FC300A3A3A3A3E0F50EA3E0F50FE50A450B8A3F
:102FD300828B83A3A3A3A360C3124099850A82852E
:102FE3000B83A3A3A3A380B78A0A8B0B8A828B8349
:102FF300124D4F80B4E508242A1257C1FCE508247A
:1030030002F8E43509F9E8FAE9FB901B7D1231FF78
:10301300A3A3E06402703C8A828B83124D53800B1E
:1030230088828983A3A3A3A3124099E849601F88D8
:10303300828983E06A7003A3E06B70E488828983EA
:10304300A3A3E06C70DA901DB7125AF1806BECF910
:10305300121F82850882850983E06401704FE508A9
:103063002418123101120DBD1263DB120C23E50883
:103073002412123101120DBDE508123F4A120DB997
:10308300E508240B1263DF120C27E5082417123E10
:10309300E7E5082402FCE43509FDE5082419FAE410
:1030A3003509FB12279E740A120DCC800CE06402D2
:1030B3007007AA08AB09122060AA08AB091216B25E
:1030C300EEFAEF6480802DEA5402600C901DC67402
:1030D30001F0EA6402FA8023EA5408601A121F7CA2
:1030E300EA4B700B901B7F1262B67A0812310EEE18
:1030F3006408FAEFFB80047A007B00026A65F582BC
:10310300E43509F583E0F50A780A22FB901B62E0B7
:10311300F912181A22A3A3E0F50CA3E0F50D227B04
:1031230000901B62E0F912180E74042274F4120862
:10313300248A088B098A828B83A3A3A3124B4B1285
:103143003EF238F583E02409FA1269FD7003023177
:10315300F28A828B837402124BC0850882850983AD
:103163001231FFE8F0A3E91266778A828B83A3A367
:10317300A3A3A3A3A3A3F0E5082403F8E43509124A
:1031830031F4123EF23AF583E08E828B83A3A3A33C
:10319300A3F0EE2409FAE43FFB8E828F83A3A312EC
:1031A3005DA3F5838882E0A2E58E828F83A3A3A328
:1031B300A3A3500474018001E4F0E5082403F5821D
:1031C3008983124D53EA1252D43BF5831269C41218
:1031D3000DB5123EF13B125E958E828F83A3A3122F
:1031E3007B73120DCCEEFAEFFB901B62126A4A80DE
:1031F30016F98882F583E0FAA3E0CA22124EF0A3FF
:10320300A3227402120DCC7F04020B5874F212082D
:10321300248A088B09ECFAEDFB740E1210D5E0FC3E
:103223001211FC8A0C8B0DAE0CAF0DEA4F6030AC63
:1032330008AD091211EAE96026AC08AD09EEFAEF10
:10324300FB1211F0E970148E828F83124086FAEF1D
:10325300FB1211E4AA08AB09121214790080027957
:10326300B4024E3F74F012082474F6120E65EAFE9F
:10327300EBFF8C088D09750FB3852182852283E4CA
:10328300F0750E008002050E902EEFE493F8E50E24
:10329300C398400302338EAA0E7B001212388A0AA7
:1032A3008B0BEA4B60E08A828B83A3A312339528AE
:1032B300F0F8C3EE98EF940050CC7C157D007900B4
:1032C300AA08AB0912169A850A82850B83A3A3A3C6
:1032D300A3126E70E0F8EEC3982925E0F8E433F901
:1032E300E50A28F582E50B39F583A3A3A3A3A3A3DA
:1032F300123EFCA31259188A0C8B0DAC0CAD0DAA0F
:1033030008AB0912184A850A82850B83A3E064017E
:10331300700A1263DB7401123F0E80447401120EB3
:103323005D850A82850B83124D51121220E9603D9F
:1033330074091210D5E0C0E01263DBD0E0F0740929
:103343001210D5E0640370137401120E5DE50824B6
:103353000BFAE43509FB12184A801274011210D5D6
:10336300124099E5081258FE3509126E31850A821A
:10337300850B831263E7123F0EA3A3E0C0E0E508C9
:1033830024141263DFD0E0F0750F00A90F740A0252
:103393006A62A3A3A3E0F8852182852283E02274D5
:1033A300F7120824E9FE8A828B83A3A3A3A3A3A312
:1033B300E0540860338A828B83A3A3A3A3A3A3E06F
:1033C300540260218A828B83A3A3A3A3A3A3A3A3F1
:1033D300A3E06406600F74E96E600A74CD6E600545
:1033E30074F06E7003121F6402473E74F0120824D7
:1033F30074EF120E65740F1210D512619A740812CD
:1034030010D5E9F0ECFEEDFF74051210D512450658
:1034130012472AA3E0F912120874061210D512619A
:103423009A74061210D512536570030236A9123F1F
:1034330036E0FA74061210D5E0F9121EA412370909
:10344300F8A3E0F9E84970030236A9EE2403F50A6C
:10345300E43FF50BEE2406F508E43FF5097C00850F
:103463000882F583124D53850A82850B83E0F91296
:10347300120E74031210D512619A850A82850B838A
:10348300E0C0E0852182852283123702D0E0125406
:103493007AF9852182852283123D9E124FCC123305
:1034A30098FAA3E0CA2407F582E43AF583E8F0A387
:1034B300E41261A52406F582E438F583E4126E3D37
:1034C300124B3F120DB5EE123EF23F125E9574039E
:1034D3001210D5124B4B2409127B6D120DCC74299B
:1034E3001210D5126E6A1231F912548D3A126E31DE
:1034F300742B1210D5E0C0E08521828522831253FC
:103503002CD0E0F074021210D5E4F074251210D51B
:10351300780812107E02360074031210D5125E5D15
:103523008882F5831236F1A3A3A3125923FB121247
:1035330026850E82850F83A3EAF0A3EBF0740312B2
:1035430010D5123702A31236F1125B32A2E6500FE6
:10355300850E82850F83A3A3A3A3A3E0D2E1F07416
:10356300051210D5E0706B850E82850F83A3124080
:1035730099901BBDE0687003A3E0697055850E82C6
:10358300850F83A3A3A3123ED1750C00780C120DF3
:10359300BD7808120DB174291210D5E0F50C780C22
:1035A300120DBD74271210D5120C27901BCA120CD2
:1035B30027790074191210D5124D231220A8740A0A
:1035C300120DCC850E82850F83A3A3A3A3A3E0448E
:1035D30005F074021210D5E004FC8E828F83124D25
:1035E3004D8E828F83A3A3A3E0F912120E740312EC
:1035F30010D512619A74021210D5E004F07403120C
:1036030010D5125365606774021210D5E0FA740680
:103613001210D5124099C3EA98E4995051740212DA
:1036230010D51239DB852182852283E028F8A3E0B7
:1036330039F9E8240FF50EE439F50F850E82F58389
:10364300E4F074031210D51236FC640160030235F2
:103653001B74051210D57401126A50F07403121012
:10366300D5125C241239FEE8F0A3E902353F852127
:1036730082852283124D53121EAA852182852283BD
:10368300120C2774261210D5E0FD74251210D5E014
:10369300FC740A1210D5E0F9EEFAEFFB121F5E7408
:1036A30002120DCC80438E828F83A3A3A3E0C0E0DC
:1036B300740C1210D5D0E0F01268B9E0C0E0740DBC
:1036C3001210D5D0E0F074061210D51253657009AC
:1036D300740E1210D574B98007740E1210D57410BD
:1036E300F07409120E551220A27411026A62E08569
:1036F3000E82850F83A3A3A322E0125452E022E09B
:10370300125452A3A322852182852283EAF0A3EBDC
:1037130012536E2274F012082474E1120E657404BD
:103723001210D5E9F074031210D5ECF074021210E4
:10373300D5EDF08A0E8B0F742F1210D512311AAA01
:103743000CFB121E9874011210D5E9F0AA0CAB0DF4
:10375300121E9E74011210D5E070030239D6852122
:1037630082852283E480158E828F83A3A3A3A3A3E0
:10377300E0D2E3F0852182852283E0041269A8F870
:10378300852182852283E0C39840030239CD7401E9
:103793001210D5E070030239CD8521828522831270
:1037A30039DBE50C28F8E50D39F9E8240FFEE43997
:1037B300FF8E82F583A3A3A3A3A3E0A2E040B57584
:1037C3000800750A08750B0074021210D5E0600337
:1037D3007508207C087D0079007405120E551216B9
:1037E3009A8E828F83E0603E901C0DE06401701A14
:1037F300E508D2E3F508750B101239EB1210D5E882
:10380300F0A3E912581674FF807643080C750A0C6E
:103813008E828F83A31239F6126E3374051210D57C
:1038230074FFF0A3805A74041210D5E06009E50810
:10383300D2E6F508750A0A8E828F83A3E064FE70D0
:1038430003A3E0F4703074121210D57404126405EB
:10385300F8741D1210D5E8124BC07412120E5512D3
:103863001DC67D007C00790074151210D5AA82ABA9
:1038730083121BB0800B1239EB1210D5E8F0A3E9C9
:10388300F074071210D5E508F0123F2DC0E074095B
:103893001210D5D0E0F0740A1210D57401F074053B
:1038A300120E5512206674111210D5E0600302390E
:1038B300AB740D1210D51254758E828F83A3A3A3FC
:1038C300A3F0740D1210D5124B8EE50AF0A3E50B8D
:1038D300F074031210D5E0C0E0124B1FD0E0125B6E
:1038E300326011901C0DE0C0E0740D1210D5124B24
:1038F30069D0E0F0740D1210D5124099850C8285C1
:103903000D83A3A3A3A3A31239E4241C126194126D
:103913006E4D1239E6125AE4391268D8C0E0124BE0
:1039230006D0E012699DC0E0740D1210D512464C0A
:10393300D0E012669EC0E0740D1210D5124642D03C
:10394300E0F0740D1210D51239F61239E4242A125C
:103953006194850E82850F83A3A3A3A3A3A3A3A32B
:10396300E012618D123F1CC0E012462ED0E0F074CD
:103973000D1210D5124D53850E82850F831269B334
:103983002428F582E43B126E31123F251269C412DA
:103993000DB5125E8EEA1261263B127B71120DCCBD
:1039A3007405120E5512206C8E828F83A3A3A3A3DA
:1039B300A3E0D2E0F074111210D5E0600302376A7D
:1039C30074011210D5E0140237767900AA0CAB0DFE
:1039D300121F6A741F026A62E075F007A4F8A9F067
:1039E30022A3A3124D57E8228E828F83A312409DF8
:1039F300740522E01239FEA3A3A322F8A3E0F985FC
:103A03000E82850F83A32274F012082474E8120E29
:103A130065E9852182852283F08A0E8B0F8A828B4A
:103A230083A3A3A3A3A3A3A3A3E0F9121EC28A089B
:103A33008B09EA4B7003023AE7E50E1252E8123F94
:103A430045123EDC852182852283E06003023AEA47
:103A53007C04850E82850F83A3A3A3A3A3A3A3A39F
:103A6300E0F9121EC8EE4F607B8E828F83A3A3A35F
:103A7300A312409974071210D51262CB12409974A5
:103A8300091210D5124BF0C0E074111210D5D0E01A
:103A930012667CA3A3A3A3A3A3A3124099740F123A
:103AA30010D5126E3374121210D5E4126A58C8245A
:103AB3001FF582E438F583125E59C413135403FCD3
:103AC30070027C048E828F83E0F97808120DB9743A
:103AD3002059FD744059F97403120E55121F5E7478
:103AE30002120DCC026A607C08850E82850F83A3C7
:103AF300A3A3A3A3A3A3A3E0F9121EC88B0BEA4BB2
:103B03007003023A68EE4F60DB852182852283E0F1
:103B1300F50C780C120DBD850882850983A3A3A338
:103B2300A3A3A3A3E0F50C780C120DBD8A828B83AB
:103B3300A3A3A3E0FB8A82850B831276908A8285F6
:103B43000B83E0FA8E828F83A3A3E0F91227A47478
:103B530002120DCC023A6C74F712082474FA120E96
:103B630065E9FE780179017F00800379000F124E29
:103B7300CFE0FCEFC39C5026EF75F007A4FC85F063
:103B830008AD08EA2CFCEB3DFD1244BEE0A2E05078
:103B9300DA540C60D6E0A2E250D3780080CF8A8258
:103BA3008B83A3A3A3A3A3A3E0703DE9A2E04005F5
:103BB30074016E70338A828B83A3A3A3A3A3A3741C
:103BC30001123EAEE0C0E074031210D5D0E01245FE
:103BD3001DE0C0E074041210D5D0E0F0740512109B
:103BE300D5E8125DF81220A2740602473BC082C0DA
:103BF300837901121F6A025C3474F4120824EA4BBD
:103C0300901DC66019E4F08A088B09F50AF50B7854
:103C130008120DB17A02123122120DCC800A7401FE
:103C2300F07A027B0012310F02320A74F012082478
:103C330074F3120E6574031210D5E4F0A3F0901B15
:103C43007D123EDC74011210D5E4F0A3124BC504BF
:103C5300F0901BB7E0A2E35003023D21123EA27491
:103C6300091210D51210BE74091210D5780812105B
:103C73007E901B7F7808120E3574051210D57808D4
:103C830012106F123DA574051210D5780812101288
:103C930050077A017B00023D9274051210D5780C0F
:103CA30012107E901DB6E0F509780C79081207B55D
:103CB300A80CA90D901DB7E0C398E4995003E080C8
:103CC30001E8852182852283F074091210D57808D2
:103CD30012107EC008C009C00AC00B74051210D5AB
:103CE300780C12107E123DA5780C79081207B5E402
:103CF300F50AF50BD00FD00ED00DD00C780C790847
:103D0300120F0D901B7F780C12106F8011123D97CC
:103D1300126E33EEFAEFFB12174EAE08AF09EE4FF9
:103D230060658E828F83123395C398502DEE2403E2
:103D3300F8E43FF9E0FA88828983E0C39AF06023CC
:103D430074031210D51241FF74011210D5EEF0A3C3
:103D5300EF1262E6FEA3E0FF80C48E828F83A3A3EB
:103D6300A3E4F08E828F83127B2A74011210D51282
:103D730053658E828F83A3A3A3A360911262BF12A4
:103D830010D5123D9E808974031210D5124D5374C1
:103D93000D026A6212409D901B7D22125E84A3A3D2
:103DA300A322901DB5127B32E4F50AF50B2274F0C1
:103DB3001208248A088B09890A78007900901B7DF0
:103DC300123EDCFBEE4B601E088E828F83A3A3A3FF
:103DD300A3124D1D601008E87001098E828F8312B3
:103DE3003ED8EA4F70E3901DB8124D53C3E89AE9E9
:103DF3009B4003023E957A06123E98A80CA90DEA51
:103E0300497003023E958A828B83E508F0A3E50996
:103E1300123EB7E50AF0901DB7124ED7123EAEA37D
:103E2300E4F0A3F0901B7D124D1D600D8E828F83F5
:103E3300A3A3A3A3126E338017901B7D126E33903E
:103E43001BB7E0A2E34009123EA2901B7F1210BEF3
:103E5300901BB7E0A2E3503A7A087B00901B62E024
:103E6300F9121820EA4B4C4D7028901DB5E0F50867
:103E7300A3E085080CF50DE4F50EF50F780C120D93
:103E8300B17A087B00901B62E0F9121814740412D3
:103E93000DCC026A657B001217488A0C8B0D221227
:103EA3001832EAF8EBF9ECFAEDFB22123EB22212D9
:103EB3003EB7A322F08A828B83A3A322E508F002F4
:103EC300473EF08E828F83A3A3A3A3A3A3221257FB
:103ED300CFA3A3F022A3A3A3A3E0FEA3E0FF227F2B
:103EE30005020B58F582E43509F583E0F922EA125D
:103EF3003EF6222410F582E422123F04A3A3A3A3D7
:103F0300221240A185088285098322123F1222F0E2
:103F1300850A82850B83A3A322E50E2411123F4257
:103F2300E022E50E240E123F4222E50E2410123F3A
:103F330042E022123F3A22EE123EF63FF58322F58B
:103F430082E4350FF58322240FF50AE43509F50BD6
:103F5300780A22E0F91216C48A088B09EA4B227404
:103F6300F2120824890B8A088B098A828B83124DEB
:103F730053121F8EEA4B600479B8806A121F9AE9C4
:103F8300F8902EECE493F9E8C399400479B2805693
:103F93007A15123E98AE0CAF0DEA4F70047910807B
:103FA300458A828B83E4F0A3123EB7E50BF0750AD2
:103FB300007808120DB57C127D00EA240312696FA4
:103FC300120DCC901B831253657008901B83800CD9
:103FD30012409988828983123FEC70F4EEF0A3EFCC
:103FE300F0121FAC7900024E3F124D57EA4B888204
:103FF300898322C082C083901B8380048C828D833B
:10400300127691EC4D60288C828D83A3A3E06960C6
:104013000574FF6970E68C828D83A3A3A3E06A70A5
:1040230003A3E06B70D6EC2403FAE43DFB80047A2F
:10403300007B00025C3474F7120824E9FD74FE6D02
:1040430070047C0180027C00901B8380096D7002E8
:104053007C0188828983125365601F88828983A3C8
:10406300A3A3E06A7003A3E06B70E7ECA2E088828D
:104073008983A3A3E050D6F9800279FE02473EEE7E
:10408300F9800CA3A3127B32EE227402120DCC7FB3
:1040930002020B58F58312409D221240A122E0F840
:1040A300A3E0F9221240A18E828F8322120DCC7FCE
:1040B30003020B58C082C0837900901B83800109DF
:1040C300E0FAA3E08A82F583E582458370F1025C1E
:1040D3003474F6120824E4F508F5097808120DB9CA
:1040E300902EECE49375F013A4A9F01241F4126E30
:1040F30091120DCCE9FE74096E7003121FA60240E3
:104103008274F612082474FE120E658521828522BC
:1041130083E4F0A3F0A821A922880889097808126A
:104123000DB97508027509007808120DB9126B02F2
:10413300120DCC02408D74F512082474EB120E6537
:10414300852182852283E4F0A3F0901B8380748E03
:10415300828F83A3A3E0C0E074021210D5D0E012D3
:104163005816A982AA8389088A09750A0078081251
:104173000DB57C127D0074061210D5126E56120D09
:10418300CC7402120E4D880889097808120DB9758E
:1041930008137509007808120DB974041210D512AA
:1041A300530875F013A4F8AAF075F013E91241F05F
:1041B300126B0A120DCC8521828522831241FF8E58
:1041C300828F83123EDCEE4F7085A821A9228808D6
:1041D30089097808120DB975080275090078081263
:1041E3000DB9126B02120DCC74150240AFA42AF95B
:1041F300E82402FCE439FD7A427B0022E02401F04A
:10420300A3E03400F02274F412082474EB120E6558
:104213007E007F00A821A922880889097808120D49
:10422300B97508028E097808120DB97C007D007AF1
:1042330042126E9D120DCCE9706C8E08805674028A
:10424300120E4D880A890B780A120DB9750A137577
:104253000B00780A120DB9E50875F013A4F8AAF05B
:1042630075F013E5091241F0126E9F120DCCE9703F
:104273001B74031210D5AA82AB8374021210D5E00B
:10428300F9121F88E970050EEE70010F0508E508A5
:1042930070020509852182852283124099C3E508AE
:1042A30098E509994098EEFAEFFB7415023207740A
:1042B300F61208248C828D83A3A312450BF0EA1215
:1042C300612C3BF583E0C0E01244C8D0E0F0EA245F
:1042D3001DF582E43B1240971244AC124506F0A34D
:1042E300F0EA241FF582E43BF583123EDCEC124432
:1042F3009F3DF583EEF0A3EFF01244A53BF5831247
:1043030044D6A3A3A3A3A3A3EEF0A3EF125D87FE5A
:104313008C828D8312451574035EFEC394034003A0
:10432300024492EE600874026E60030243B78C820B
:104333008D83E0540CFE740C6E70030243F6E0A20E
:10434300E4400D88828983E08C828D83A312452B00
:1043530074086E60030243F61244B67401F08A8255
:104363008B83A3A3A3A3A31257DC70148C828D8326
:10437300E0440C12451DA3A31244D6EEF0A3EFF0C4
:104383008C828D83E0A2E4402B88821244E41244A1
:10439300F9500109F5821244E4A3A3A3A3A3A3F054
:1043A300A3EF1245258C828D83A3A3A3F0E82403F6
:1043B300F850010988828983E0C0E0EC2411F5827A
:1043C300E43DF583D0E01245158C828D83E0A2E7AE
:1043D300507588828983E0FE8C828D8312452B740D
:1043E300FC5E700C8C828D83A3E054036403701E07
:1043F3000244921244B6E4F0740C6E60030243610B
:1044030088821244EA1244F95001090243838C82E0
:104413008D83A3E05403603288828983E0C0E0EC9B
:104423001244D03DF583D0E012452C8C828D83E07D
:1044330054036402701488828983E0C0E01244BE8E
:10444300D0E012452C8003A3E4F0EC1252D43D12C9
:104453006E31EC2410FEE43DFFEA241DF582E43BBB
:10446300F583E0F5088E828F83E0C3982508F5086D
:10447300F0EA2417F8E43BF98882F583E0C3950852
:10448300C0E01244ACD0E0125D87C39508500A1215
:1044930044ACE4F01244C8E4F00240922415F582DF
:1044A300E422EA240DF582E422EC240DF582E43DB6
:1044B300F58322EC12548D3DF58322EC2414F5820E
:1044C300E43DF58322EC123EF63DF583222413F5F9
:1044D30082E422E0FEA3E0FF8C828D83A3A3A3A347
:1044E300221244EAA3A3228983E0F508A3E0FFE5AF
:1044F300088C828D8322A3A3A3A3F0A3EFF0E82467
:1045030002F82212450BA322E4F08C828D83A3A32D
:10451300A322124533A882A98322123EB2A3A3A3E6
:10452300A322124533A3E022A312453308A9832211
:10453300125D90A32274F412082474F3120E658A98
:104543000A8B0BECFEEDFF8C82F583E0540CF5082F
:10455300E0A2E75006E508D2E7F508E508D2E1F561
:10456300081257DC7006E508D2E4F508E0A2E5502E
:1045730006E508D2E5F5087C087D007900AA21ABA1
:104583002212169A74021210D5E508126E37C0E093
:1045930074031210D5D0E0124BC5E50AF0A3E50B66
:1045A300F074051210D51266A31210D5E07077745B
:1045B300081210D5124B4B125D79381266BEC0E05B
:1045C30074081210D512464CD0E012669EC0E074F7
:1045D300081210D5124642D0E0F074081210D5121A
:1045E3004638E0124B73124BF412618DEE24111214
:1045F30057A8C0E012462ED0E0F0EE24141257A8BC
:10460300C0E074081210D5124B4B2435F582E43800
:10461300F583D0E0124B98C0E074081210D5124B0A
:104623004FD0E01263F7740D023207E82432F582AB
:10463300E439F583221240A7A3A3A3A3A3A32212C1
:104643004B5F12689D38F58322124B5F2426F58257
:10465300E438F5832274F71208247E008A828B8360
:10466300A3A3A3A3A3A3A3A3A3E064046003024798
:104673001A125485E0600302471A1252E73B1253A1
:1046830063700302471A88828983E054036003023C
:10469300471AE812548D39F583E0FA8C828D83A38F
:1046A300A3E0FBA3E0CB2411F582E43BF583E06AAE
:1046B300706588828983A3A3A3A3A3A3A3A3A3123F
:1046C300471EE06A7003A3E06B704C88828983A362
:1046D300A312472AE0FFA3E0CF24061257A86A706B
:1046E30003A3E06B703188828983A3A3E0F88C82F3
:1046F3008D83A3A3E0F9A3E0F5838982A3A3E068F4
:1047030060138C828D83A3A3A3E0F5838982E05495
:104713000C640470027E01EEF980201247222212FB
:104723004D5B8C828D8322A3A3124722A3A3227401
:104733000C1210D5E0F9740D120DCC7F01020B5849
:1047430074F612082474FC120E65EAFEEBFFECFA11
:10475300EDFB8C82F583A3E054036016901B791262
:10476300536560597900EEFCEFFD125F841227CD8B
:10477300804B852182852283EEF0A3EFF074021231
:1047830010D5124BBAAC21AD227AC47B1F1221EC97
:104793008A088B09A808A909EA4960218A828B83C0
:1047A300A3A3A3A3A3A3A3A3A37406F07A0088825D
:1047B3008B83124B4B12614DE0F912214A740402B0
:1047C300408F74F212082474F3120E65EAFEEBFFB5
:1047D3008A82F583A3A3A3A3A3A3A3A3A3A3E0F51F
:1047E3000A901DC6E0700579BA024B03750801757E
:1047F3000900750C00750D007C087D007900AA2165
:10480300AB2212169A74051210D57401124BCD54B3
:1048130004601274021210D5E0D2E6124BCD540894
:104823007003750803E05410600674404508F508EA
:10483300E05408602274021210D5E044C0124BCD3C
:104843005420600A74031210D5E0D2E08008740388
:104853001210D5E0D2E1F0EE24151257A8124B3313
:104863007003740169700674084508F5088E828F19
:1048730083A3A3A3A3A3A3A3A3E070161222468535
:10488300218285228312619A74021210D5E0D2E24A
:104893008030640F701074021210D5124BD574045B
:1048A3004508F508807F8E828F83A3A3A3A3A3A3C8
:1048B300A3A3E064028E828F83700A126E6AE8F00B
:1048C300A3E9F08060A3A3A3A3A3A3A3A3E064032A
:1048D300700DAC21AD22EEFAEFFB121FFA80468E6B
:1048E300828F83A3A3A3A3A3A3A3A3E0640170352F
:1048F300901C0DE0601074021210D5124BD575098F
:1049030010750AFF801874021210D5E0440C124B84
:10491300C574FDF0A374FFF074044508F5088E8296
:104923008F8312311AEE24151257A8A2E0503F7458
:10493300021210D5E0540C701B8E828F83124D53DC
:10494300121C7CE9700579BB024B0374021210D56B
:10495300E0D2E5F0EE24151257A8A2E0501074023D
:104963001210D5E0540C64047004E0D2E5F0EE2498
:10497300111257A8C0E074041210D5D0E01266A536
:104983001210D5E06003024AFC74081210D5124BD2
:104993008EE508F0A3E509F0124B29E0C0E0124BC5
:1049A3001FD0E0F0124B10E0C0E074081210D512D3
:1049B3004B4B1244D038F583D0E0124BF4640170B2
:1049C30011901C0DE0C0E074081210D5124B69D091
:1049D300E0F074081210D5124B89124B1AFAE8242E
:1049E3001CF582E439F583EA124BC0EE2415FAE490
:1049F3003FFB8A82F583127691E8125AE439F583F4
:104A0300124BBAEE241C1257A8C0E0124B06D0E09A
:104A1300125C2A124B337003740169701374081209
:104A230010D5125475FAEE241D1257A8F9121ECE92
:104A33008E828F83A3A3A3A3A3A3A3A3A3E0C0E016
:104A430074081210D512464CD0E0F074081210D539
:104A5300124642E50AF074081210D51253082428AE
:104A6300F582E439F583E50CF0A3E50D124BA012B2
:104A73004B7312582112618DEE124B1AC0E0E824D9
:104A830033F582E439F583D0E0F0EE241B1257A806
:104A9300C0E074081210D5124B4FD0E0F0EE241A88
:104AA3001257A8C0E074081210D5124B4B2432F5EC
:104AB30082E438F583D0E0124B98124B3F120DB5C8
:104AC3001268A3127691740B1210D5124B4B242F3C
:104AD300127B6D120DCCEE24151257A854406012B0
:104AE300901B99125365600AAA21AB22125F8412AC
:104AF30027CDAA21AB2212206C740C1210D5E0F939
:104B0300024E3AE82420F582E439F58322EE241993
:104B1300F582E43FF583221268B2E022E82412F51D
:104B230082E439F58322EE2418F582E43FF58322EB
:104B33005480F8A3E05401F974806822F508A3E0D7
:104B4300F509750A00780822124B5F22124B5F2485
:104B530034F582E438F58322A3A3A3A3124B632283
:104B6300E0F8A3E0C822124B5F12449F38F583227A
:104B7300FAA3E0FBE8242AF582E439F583EAF0A3FB
:104B8300EB22A3A3A3A312409DEE2212530C1252B5
:104B9300EC39F58322F0EE241312582922F0EE2487
:104BA3000D12582922E0FC8A828B83E02CFCA3E0BF
:104BB3003400FD8A828B83ECF0A3EDF022F0A3E4B2
:104BC300F022F085218285228322F0EE24151258EB
:104BD3002922E0D2E3F0124BDD228E828F83124032
:104BE300A1852182852283E8F0A3E9F022E8F0A3DE
:104BF300E91262E0E02274F71208248A828B83A30D
:104C0300E0640170047E6380027E648A828B83E0A9
:104C130060087905124C2D24F3FE901BB5E0600764
:104C2300F9124C2D24F2FE02471A122114E9F8EE70
:104C3300C3982274F612082474FE120E658521822D
:104C430085228312619AE9FEECFAEDFB900582124C
:104C530053656032A821A922880889097808120DB2
:104C6300B97D01740E1210D5E0FCEEF990058212A5
:104C7300616E1227CD7402120DCCEA4B60047900E9
:104C8300800679B2800279B602408D74F712082447
:104C9300E9FE901B6F125365601F74091210D5E073
:104CA300F5087808120DBDEEF9901B6F12616E12B4
:104CB30027CD7401120DCC800279B602473E74F7FA
:104CC3001208248908ECFEEDFF79B5E508245E603F
:104CD3002014600624F86034803D900584124D1D35
:104CE3006035126EAE1227CD8E828F8312619A8049
:104CF30024901B71127691EC4D601CEEFCEFFD903D
:104D03001B7112616E1227CDE9F9800B901B6D1296
:104D13004D2312184A790002473E124D57EA4B229F
:104D2300127695EEFAEFFB2274F7120824E9FE7966
:104D3300B574AB6E700B901B6D124D5312184A79FC
:104D43000002473E8E828F83A3A3A3A3A3A3A3A39F
:104D5300124D5722124D5B22E0FAA3E0FB2274F1BD
:104D6300120824EAFEEBFF8C0A8D0B750801901BD9
:104D7300BDE06E7003A3E06F700C124E2EAA0AAB57
:104D83000B12184A805E12224CEE6A7002EF6B70AF
:104D930009AA0AAB0B122252804AAC0AAD0BEEFAF7
:104DA300EFFB121DA2E9F508901DBDE07036122637
:104DB300D8E97030E508702C901B8DE06E7003A36A
:104DC300E06F7020EE4F601C750C85750D1B750E22
:104DD30000780C120DB57C087D00AA0AAB0B126E8D
:104DE3005A120DCCA90802778D74F2120824EAFE38
:104DF300EBFF8C088D09750A01124E2EEEFAEFFBBC
:104E0300121844E964017011901BBD124099850882
:104E130082850983126E33800EAC08AD09EEFAEF7A
:104E2300FB121DA8E9F50AA90A80111222408A0C77
:104E33008B0DAC0CAD0D22740D120DCC7F06020B45
:104E43005874F6120824EAFEEBFF7A0D7B00121762
:104E530048EA4B6062EE2424126B37F0EE242512ED
:104E63006B37A3124EFC126B3DA3A31268D0124EF4
:104E7300D7F0EE124EBD124EECE8F0A3E9124F1339
:104E8300124EE4126E33EE124EC6126993A3A3A31D
:104E9300A3F0EE24331257A8C0E0124ECFD0E01295
:104EA30066C2124EE4A3A3A3E8F0A3E9124F0BC01A
:104EB300E0125485D0E0F0024092242AF582E43FC8
:104EC300F58322242EF582E43FF58322EA1258FE6D
:104ED3003BF58322124EDB22E08A828B83A3A3A3BA
:104EE300221269F2A3A3A3A322124EF0221240A11D
:104EF3008A828B83A3A3A3A322F0124F0122EE2461
:104F030026F582E43FF58322F0EE2432125829225B
:104F1300F0EE242C1258292274F412082474FE1281
:104F23000E65ECFEEDFFEC24161257A86405701015
:104F3300EC2406FCE43FFD121FF4E97003024FC7A3
:104F4300AC21AD22126BEC121C8285218285228357
:104F5300125365606B8E828F83E064017058E8752D
:104F6300F009A4F8AAF075F009E9A42AF974E6286F
:104F7300F8740839F9E8FAE9FB8882F583780812AE
:104F8300107EEE125069121012402785218285226D
:104F930083124B891257B6124FCC780812107E90A9
:104FA300872A7808120F498A828B83780812106F38
:104FB300800A79A28010EE240F126E2D79008006EC
:104FC30079A1800279C8023205124BEAEE1268BE5B
:104FD3002274F21208248A0C8B0DECFEEDFFEC1206
:104FE30057B6E4F0A3F0908706780812107EEC120F
:104FF3005069120E916067EC240E1257AF7034782B
:10500300B3901BB4E07028901BE6E064017020ECC1
:1050130024111257A8F91220FC8B09A909EE125288
:10502300E83F126198EA4960047800800278A18819
:1050330008802EE060046402700A122006E9F50875
:105043007007801DE064037010EEFCEFFDAA0CAB4B
:105053000D121CA6E9F50880087508A180037508E0
:10506300A3A908024E3F1268BE78082274F0120802
:105073002474F5120E65EAFEEBFFEA240AFCE43F12
:105083008C82F583127B2E1252F27403120E5D8A08
:10509300828B83125F8EE970030251587401120EE2
:1050A3005D7403120E55121C8274011210D5125333
:1050B300657003025158E875F009A4F8AAF075F079
:1050C30009E9A42AF974E228FC740839FDE50824E7
:1050D3000E1263DFE4F0041210D5124099E50812B2
:1050E30052E83509126E318C828D831210B2E508B5
:1050F30024121263DF1210BE90872A780812107EE2
:105103008C828D837808120FA88C828D83780C1281
:10511300107E90878E780812107E780C790812071B
:10512300B5E5084509450A450B702A74011210D5E7
:1051330012530875F009A4F8AAF075F009E9A42A36
:10514300F974EA28F582740839F5837401F07A005A
:105153007B081253158E828F83A3A3A3A3A3A3A3B8
:10516300A3A3A3E02406FCA3E03400FD8E828F8377
:10517300125F8E1266B0603EEE240A1252DA124BB0
:105183008E7468124BC0E81252D439F5837402F05E
:10519300901B9F1210B28C828D83126187125D79EE
:1051A3003CF5831210BE90872A780812107E901B5C
:1051B3009F7808120FA8125350705D901B6D125305
:1051C30000A3A3A3A3A3A3A3A3A3A3125DAF121836
:1051D30044E97010125D6D901B6D125D7F700512B6
:1051E30066B060348E828F83A3A3A3A3A3A3A3A3D8
:1051F300A3A3125300124D53121CACE960118E820B
:105203008F83A3A3A3A3A3A312533CE4F0A3F08E21
:10521300828F83125322E4F012535060030252CF61
:105223008E828F83A3A3A3A3A3A3127B2A901BB471
:10523300E060030252C4901BE6E064016003025283
:10524300C4750A3A750B00780A120DB97402120E6E
:105253004D880A890B780A120DB9127129120DCCE7
:10526300E9705BE508240E1263DF740112536AC010
:10527300E0E50824111263DFD0E0F0E508240F1203
:1052830063DF743A124BC0901B9B1210B2E50824E3
:10529300121263DF1210BE90872A780812107E90D4
:1052A3001B9B7808120FA890872A780812107E900B
:1052B3001B9B7808120E917008125311800312522F
:1052C300F21253507006125C7074A1F0740B026AF0
:1052D30062240EF582E422F8E43FF9E8FCE9FD8854
:1052E30082F58322EA1252EC22240FF582E422E5AE
:1052F300081252EC3509F583E4F0A3F022127695F7
:105303008E828F832212530C221240A1E8227A004C
:105313007B02901A46E0F91216EE228A828B83A34F
:10532300A3A3A3A3A3A3A3A3A312533022124B6348
:10533300240EF582E438F58322A3A3A3A3125344D6
:1053430022124B63240FF582E438F583228E828F79
:1053530083A3A3A3A3A3A3124B5B240FF582E43877
:10536300F58312530C492212536E22F08521828554
:105373002283E02274F6120824EAFEEBFF7A237BF1
:1053830000121748EE240AF508E43FF50985088260
:105393001261987C237D00790012169A8508828514
:1053A30009831253657003025438EEFAEFFB12209F
:1053B3001212535060748E828F8312546B64018E69
:1053C300828F83A3A3A3A3A3A37007125461740EB4
:1053D300802112536570101266B0700B8E828F831A
:1053E300A3A3E0A2E05007125457740D8005125492
:1053F3005774051266C254036401700712543F7454
:1054030005800B901BB5E0C0E012543FD0E012546E
:105413007AF58388821257D5850882850983124BD2
:105423004B12612C38F583E9800E85088285098348
:105433001262118003126154F00240928E828F83B4
:10544300A3A3A3A3A3A3A3A3A3A312545122E01230
:105453006173A3228E828F83A3A3A3A3A3A3124B5F
:105463005B12613238F58322A3A3A3A3A3A3A3A34F
:10547300A3A3125330E02212547E22126C01F8A32C
:10548300E022EA12548D3BF58322240CF582E422B8
:1054930074F112082474E4120E658A0C8B0D8C08C7
:1054A3008D097A237B001217488A0A8B0BAE0AAF49
:1054B3000BEA4F7003025790126138E50824151266
:1054C30057C1687003A3E0698E828F8370047402EE
:1054D30080027401F0E508240DF8E43509F98882A7
:1054E300F583E0FAC3E49AFA95E0FB1257BD2AFA72
:1054F300A3E03BFB8E828F83A3A3A3A3125D968EAF
:10550300828F83A3A3F0EE2420F582E43FF583E4A6
:10551300F0EE2421F582E43FF583E4F0EEFAEFFBAD
:105523001220C68508828509831257DC70098E8292
:105533008F83A374058006901BB51257CAF0EE241F
:1055430017F50AE43FF50B8E828F831257D5E98551
:105553000A82850B83F0EE2416F8E43FF9E508246C
:105563000EFAE43509FB88828983124BA8E50824E7
:1055730010FAE43509FB850A82850B83E0FC8882F7
:105583008983E0F88A828B83E0C398C39CF812581E
:1055930016F0EEFCEFFDAA0CAB0D12200CE9F50B97
:1055A3008E828F83E064027006125D6D12579AE556
:1055B3000B6003025787750C00750D00901DBDE04D
:1055C30064016005E06402703F1257AC6008EE248A
:1055D300211257AF70328E828F83A3A3A312615A15
:1055E3001257E2EE24161257A812580BFAE439FBAD
:1055F300123E9AEA4B60111269BC120DB51257F0B4
:10560300AA0C126E5A120DCCEEFAEFFB1220D2E95D
:10561300F50B901DBDE064016008E06402600302C5
:10562300577AE9700302577AE50C450D7003025768
:10563300878003850E0B1257AC600BEE24211257A3
:10564300AF6003025780850B0E850C08850D097525
:105653000A007808120DB51257F08E828F83A3A328
:10566300A3A3127B73120DCCEE24201257A8600D56
:105673001257B57468124BC0EE24208015EE242116
:105683001257A860151257B57403F0A37401F0EE16
:105693002421F582E43FF583E4F0EEFAEFFB1220D8
:1056A300D2E9F50B70907C137D0079007409120E1A
:1056B3005512169A741A1210D5740112582164687F
:1056C3007002A3E0704F8E828F8312533CE0640517
:1056D30060030256367C0879FF8E828F83A3A3A3CF
:1056E300A3E0242A125DB2121724E970030256368E
:1056F3007C087D0079FF7401120E5512169A74010D
:10570300120E5D7A007B0079AB121FEE7419121032
:10571300D574FC80151257B5E064037004A3E064EC
:1057230001700874191210D574FFF0E4F508F50937
:105733007808120DB97402120E5D74131210D5AAF3
:1057430082AB83126297120DCC852182852283E07E
:10575300602B7409120E4D880889097808120DB957
:105763007508137509007808120DB97C007D0012C5
:105773006B0A120DCC8006E50C450D6007AA0CAB35
:105783000D12174EEEFAEFFB12174E8003750B1036
:10579300A90B741C02778AEE2406FAE43FFB121865
:1057A3004A22EE240C12582922EE2420125829648E
:1057B3000122EE1252EC3FF58322E508240EF58216
:1057C300E43509F583E0221257CFA322E08E828FBE
:1057D3008322A3E0F912211422E05403640122126C
:1057E30057E622E0FAE82AF8E43400F9228E828FA1
:1057F30083A3A3A312615E1257E6EE24161258295F
:1058030012580BFCE439FD22FAE82AF8E439F9E8E6
:1058130024042212581A221266D1A3A3A322F0123F
:10582300582622EE240FF582E43FF583E022790126
:10583300020D7C74F4120824EAFEEBFF8A82F583DE
:10584300A3A3A3A3A3A3A3A3124B4B2424F582E4F2
:1058530038F5831257DC702E8A828B8312546B7057
:1058630025125904E06405701D125904A3E0F8746D
:1058730001686005740668700712531E7402800580
:1058830012531E7403F0EA240A12620512616EE4D5
:10589300F0EA2408F8E43F1231F42431F582E43AC3
:1058A300F583E0C0E0126EA5A3A3D0E0125923CA8A
:1058B300242EF582E43AF583E0C0E0126EA5A3A39B
:1058C300A3D0E0125E49C81258FE38124097126EF8
:1058D300A51259188A0A8B0BAC0AAD0B8508828571
:1058E3000983125DAF12184A850882850983124D18
:1058F300531220D2126200F002320A240BF582E422
:10590300228A828B83A3A3A3A3A3A3A3A312669731
:10591300F583888222A3A3A3A3124BEA1222402277
:10592300125D8BFAA3E022025831C082C083901B20
:105933008F7418F0A37420F0901B917424F0A37457
:1059430020F0901B93742AF0A37420F0901B95749D
:105953001EF0A37420F0025C3474F4120824EA24C9
:1059630008FEE43BFF8E82F583125308126144E084
:10597300F50874035508F509125DAAF8A3E08882B7
:10598300F583E508F0A3A882A983E50960097402F9
:1059930065096003025A49740C5508FC600A7408CF
:1059A3006C600574046C7026740265097006E50862
:1059B300A2E4401A8A828B83A3A3A3A3A3A3A3A3D2
:1059C300125B4F12689D3D125AEAA308A983740C17
:1059D3006C701C125B4B2428125B372428F582E47D
:1059E3003DF583A31264CBF0E82402F85001097457
:1059F3000265097006E508A2E4404B125B4B242ABA
:105A0300125B37242AF582E43DF583A3125AF91277
:105A13005B551264CB125B55A3125AF1E82404F8C8
:105A2300500109EC600F74086C600A740C6C60051B
:105A330074046C701112617B2426F582E43C125AC3
:105A4300EAA3A882A9838A828B83A3A3A3A3A3A384
:105A5300A3A3125B1954037014E508A2E1400E12CC
:105A6300617B125AE43CF583E054806008125AFFCC
:105A7300125AEC8019901B63E0C0E0125AFFD0E089
:105A8300125B2C88828983125B2C04125D90A3A87D
:105A930082A983E508A2E750458E828F83125B19A2
:105AA30088828983125B32125B1E54036030126159
:105AB3007B2434F582E43C1264C9F0E508A2E1508A
:105AC3001D8A828B83A3A3A3A3A3A3A3A31231F948
:105AD3002435F582E43A1264C9A3F0E824030232C0
:105AE3000A241EF582E422F583125AF9F022125A8F
:105AF300F9A3A3A3F022E088828983228A828B837D
:105B0300A3A3A3A3A3A3A3A3E0FCA3E0CC2432F504
:105B130082E43CF58322E0125B1E22FCA3E0CC244A
:105B230025F582E43CF583E022F0901B63E022122A
